:020000040020DA
:100000002009002091022000E10220008D02200042
:100010008D0220008D0220008D02200000000000D3
:100020000000000000000000000000008D02200021
:100030008D022000000000008D022000310C200005
:10004000591120002D11200001112000D510200091
:1000500000000000CD0D2000D90D20008D022000F1
:100060008D022000000000000000000000000000E1
:1000700000000000000000008D02200000000000D1
:1000800000000000000000008D0220008D02200012
:100090008D0220008D0220008D0220008D022000A4
:1000A0008D0220008D0220008D0220008D02200094
:1000B0008D0220008D0220008D0220008D02200084
:1000C0008D0220008D0220008D0220008D02200074
:1000D0008D02200000000000000000000000000071
:1000E0000000000000000000000000000000000010
:1000F00000000000000000004D1A20005D1A2000E2
:1001000000000000000000000000000000000000EF
:1001100000000000000000000000000000000000DF
:1001200000000000000000000000000000000000CF
:1001300000000000000000000000000000000000BF
:1001400000000000000000000000000000000000AF
:10015000000000000000000000000000000000009F
:10016000000000000000000000000000000000008F
:10017000000000000000000000000000000000007F
:10018000000000000000000000000000000000006F
:10019000000000000000000000000000000000005F
:1001A000000000000000000000000000000000004F
:1001B000000000000000000000000000000000003F
:1001C000000000000000000000000000000000002F
:1001D000000000000000000000000000000000001F
:1001E000000000000000000000000000000000000F
:1001F00000000000000000000000000000000000FF
:1002000000000000000000000000000000000000EE
:1002100000000000000000000000000000000000DE
:1002200000000000000000000000000000000000CE
:1002300000000000000000000000000000000000BE
:1002400000000000000000000000000000000000AE
:10025000000000000000000000000000000000009E
:10026000000000000000000000000000000000008E
:100270008D02200021172000F11620008D022000A1
:100280008D0220008D0C20008D022000FEE7C0466C
:100290000D4BFF2210B500211A6003E00B4B5B5899
:1002A000435004310A480B4B42189A42F6D30A488D
:1002B0000A494FF000028842B8BF40F8042BFADB2D
:1002C00000F0E0F9FEE7C046B4200D40A254200043
:1002D000400000200D0100201001002077160020B2
:1002E00010B5FFF7D5FFFEE710B50A2000F06AF958
:1002F00010BDC04683292DE9F74380460C461546BC
:1003000002D18D4802F02EFDB8F800201AB1412A22
:1003100040F00A810BE0894B1A808948402102F0A5
:1003200009FA4FF04103A8F80030012001E1882CC0
:1003300040F0CC80022000F059F9824B00205D682B
:10034000A84740F6F25300B243437F4A7F4C93FBE9
:10035000F2F37F4FDFF8E49123804FF00703072289
:100360003B80B9F800107B4801F0BEFC39887A4820
:1003700001F0BAFC794801F0B7FCB4F900107848F4
:1003800001F0B2FC774E784801F04EFC3B8824889F
:10039000042130463380748002F03AFF8121734A91
:1003A000654802F0E3FC644802F0D0FC624802F0C9
:1003B000D9FC0220A8474EF68F0380B2C3186C4CBC
:1003C0009BB242F6EA42934220802CD901F008FC0D
:1003D000684B00221A604FF004033B800432B9F8E6
:1003E00000105C4801F080FC39885B4801F07CFC1F
:1003F000B4F90010604801F077FC5B4801F014FC90
:100400003F882488042130463780748002F000FF42
:1004100049488121554A02F0A9FC474802F096FC60
:10042000454802F09FFC474B01205B6898470A2330
:1004300040F30B104343A3F55E532A220C3B93FB7E
:10044000F2F31633022293FBF2F34C4D9BB22B8056
:100450001BB20A2B28DC3E4C4FF001032380374BA4
:10046000013A19883B4801F03FFC21883A4801F0E5
:100470003BFCB5F90010424801F036FC3A4801F067
:10048000D3FB384824882D8804210480458002F05D
:10049000BFFE29488121354A02F068FC264802F057
:1004A00055FC254802F05EFC00F0DEFB002400F560
:1004B00080410422334B3448009402F0B9FA334BA4
:1004C0001F481C60402102F035F928E0304B1B78B2
:1004D000A34224D12F4B9D4207D10421214802F091
:1004E00097FE154802F032FC19E02B4B9D4202D0DA
:1004F0002A4B9D4203D1012000F064F80FE0284B05
:100500009D4207D100F09CFD0F2000F06FF800F035
:1005100047FD04E0234B9D4201D100F0A9FD074AAD
:10052000138801331380F8E64FF00003A8F8003079
:100530000320BDE8FE83C04640090020BE0E002017
:100540002C090020604F200080C1F3012E160020EE
:10055000B80E0020125120003251200056512000C8
:1005600093512000BA0E0020D5522000084F2000E1
:100570002C16002058200D40BC5120002A160020C7
:1005800008522000A9052000200900203C09002075
:100590006E160020104F2000304F2000404F2000EA
:1005A000504F2000204F200010B5022000F014F81A
:1005B00010BDC046024B10B5187000F033F810BDE6
:1005C000F614002010B5034B1B785840FFF7F2FFDC
:1005D00010BDC046F614002010B5034B1B7823EA6B
:1005E0000000FFF7E7FF10BDF614002010B5034B25
:1005F0001B781843FFF7DEFF10BDC046F61400203D
:1006000010B500F007F8024B00221A7010BDC0466A
:10061000F6140020024A136843F00F03136070477A
:1006200000B40D40014B18607047C0463CB00D400F
:1006300073B5002506462C4605E0B4F5C87FD4BF47
:100640002546C4F548753046FFF7D0FF002302E089
:1006500000BF019B01330193019BAB42F8DB3046A5
:10066000FFF7BAFF002302E000BF019B01330193B3
:10067000019AC5F5C8739A42F6DB0134B4F5487F98
:10068000DBD17CBD2DE9774100F094FC00F078FDD2
:1006900000F0DAFC00F062FA01F02CFA02F0DAF96C
:1006A00000F00EFDFFF7ACFF0220FFF7C1FF02F0E4
:1006B00051F800F061FC00F0C7F9002000F092FB57
:1006C000012000F08FFB3A49002000F035FB02F0DA
:1006D0002FFA00F0B1FC0420FFF7AAFF354801F023
:1006E000A3FA354801F0A0FA344801F0FDFA344B82
:1006F000344C186801F098FA334801F0F5FA334B9E
:10070000334E186801F090FA324801F0EDFA324B9E
:10071000186801F089FA002002F098FA01F0A4F9B3
:100720002E48002102F0E4F801F034FF0821684669
:1007300001F09EFA9DF806309DF80750284845EADA
:100740000325BDF80630238001F0CEFA2178254834
:1007500001F0CAFA6178244801F0C6FAF46A4AF650
:10076000CD310220A04729460320A04719210120AE
:10077000A047736B082269460920984702F0BAFB2C
:1007800000211A4802F0B4F801F016FF184801F0F1
:1007900079FE00F0F7FB0820FFF74AFF00F0F8FBB6
:1007A00002F0D8F810F0FF0FF8D101F0B5F9F5E735
:1007B000552B2000665220008052200098522000C5
:1007C00078502000301600209F52200088502000D2
:1007D000C84F2000A6522000A4502000A4000020F2
:1007E000AD522000CB522000D152200050000020FA
:1007F000004F2000064B01461A78002005E0054B0B
:1008000053F820308B4202D001309042F7DB704722
:10081000F71400206000002070B504880546772C8E
:1008200020D07E2C35D0002C53D101F08BFF2B4BE8
:1008300018702B4B1C6008E02A4B002199548368E8
:1008400080209847236801332360254C264B22687B
:1008500053F822000028EFD1244B1A704FF0770391
:100860002B801AE0224A002313601D4A25E01D4B0D
:100870009B56002B1EDA194B002019781A4B53F89F
:10088000222001F089FF50B94FF07E032B80013008
:1008900023E0124B1B788B4201D001201DE0104B4E
:1008A000104A1968535C03F07F035354104A1368CD
:1008B000013313600A4A136801331360084B1A6846
:1008C0000A4B1B789A42D2DB094B1B68002BC9D11B
:1008D000C4E74FF000030380032070BD6E160020B4
:1008E000580900206F16002060000020F714002037
:1008F0005C09002010B5FFF77DFF054A135C6FEA25
:1009000043636FEA53631354024801F06DFF10BD57
:100910006F16002050000020D0F82034CA43134046
:10092000C0F82034D0F800341340C0F80034D0F8B8
:1009300004341340C0F80434D0F808341340C0F82D
:100940000834D0F80C340B43C0F80C34D0F8103411
:100950000B43C0F81034704710B580210848FFF7EA
:10096000DBFF07210422022000F018FC022000F027
:100970003FFB04480221072200F080FB012010BD4C
:1009800000B00D40590A200010B540210848FFF77B
:10099000C3FF06210422022000F000FC022000F028
:1009A00027FB04480221062200F068FB012010BD4D
:1009B00000B00D40590A200010B520210848FFF76B
:1009C000ABFF05210422022000F0E8FB022000F02A
:1009D0000FFB04480221052200F050FB012010BD4E
:1009E00000B00D40590A200010B510210848FFF74B
:1009F00093FF04210A46022000F0D0FB022000F001
:100A0000F7FA04480221042200F038FB012010BD4F
:100A100000B00D40590A200010B508210848FFF722
:100A20007BFF03210422002000F0B8FB002000F02F
:100A3000DFFA04480021032200F020FB012010BD52
:100A400000900D40590A200010B50248002102F024
:100A500013F810BD6009002070B5054610480C461B
:100A600001F0FCFFD8B10E48102102F005F81DB9C5
:100A7000032C14D10B4810E0022D10D1042C01D10D
:100A800009480AE0052C01D1084806E0062C01D1EE
:100A9000074802E0072C02D10648FFF72BFF70BD84
:100AA00060090020104F2000304F2000404F2000F0
:100AB000204F2000504F200001207047802870B543
:100AC00020D1114E114D3368002423F08003336090
:100AD0002B68204643F080032B600D4B07211C60E0
:100AE000224600F05BFB3368204623F0400333606E
:100AF0002B68062123F040032B60012200F04EFBFF
:100B000000F060FB002070BD20940D4000940D406B
:100B100000920D40012810B5044604D0022806D0EA
:100B200018B1002016E00E2009E00F2007E00A4B64
:100B3000FF224FF4FA601A6000F042F8062000210C
:100B4000302200F047FB022C80B202D1024B00227F
:100B50001A6000B210BDC04600920D400E4A0F4B05
:100B60001A600F4A136843F005031360136843F0DB
:100B7000020313600B4A136843F0010313600A4B2E
:100B800000221A6004320C3B1A60012204331A60FE
:100B90000E3234331A60704747E8010014E000E079
:100BA00010E000E008200D400C000340034BD3E9A7
:100BB0000023100A40EA03607047C046100100207D
:100BC000064B074A1860136843F001031360044B97
:100BD0001B6813F0010FFAD17047C046280003408C
:100BE0000C000340D0B500F03FF80F4B0F4CD3E999
:100BF0000067B04239460C4B38BF791C002242EAEC
:100C00000000C3E90001D4E90023921B63EB070352
:100C1000121843EB0103C4E9002301F0CFFC08B133
:100C200001F010FDD0BDC0461001002018010020C9
:100C300010B5FFF7D7FF10BD10B5064C236823F0A1
:100C400001032360FFF7CEFF236843F00103236015
:100C500010BDC04610E000E07047C046014B186868
:100C60007047C04668090020074B196804331A68AA
:100C700004331868043300041B6840EA0220084368
:100C800040EA03607047C04640500D4010B500F088
:100C9000A7FF064B00221A60912000F0C1F99120B5
:100CA00000F0B2F901F0B2FE10BDC04668090020A4
:100CB00010B50446114B1B6813F0010FFAD000F079
:100CC000BFF9FFF7D1FF231A062BD8BFC41D0C4B69
:100CD000220E1A60C4F30742043B1A60C4F30722D1
:100CE000043B1A60043B04F0FF021A6000F0A4F910
:100CF000044B91201C6000F07BF910BD50500D405A
:100D00004C500D40680900200849094B1A680B68CF
:100D10001A4204D0CB689B6913F0800004D0054BC5
:100D20002C319942F1D301207047C046704F20000A
:100D300028200D40C84F200001289CBF014B43F8DC
:100D4000201070476C090020012809D8054A2C237F
:100D500003FB0023D868836913F0200FFBD10160E7
:100D60007047C046704F2000164A2C2303FB002317
:100D700070B5DC684FF6BF73226C054692B212F074
:100D80005001636409D10DE00F4B53F825301BB1BE
:100D90002068C0B2984700E02368A36913F0100FE1
:100DA000F2D00EE012F4D06F0BD04FF440732363F7
:100DB000FF236360E36AE162E362236B43F00103B4
:100DC000236370BD704F20006C09002010B5002017
:100DD000FFF7CAFF10BDC04610B50120FFF7C4FFE2
:100DE00010BDC04601282DE9F84F00F2B7802C2332
:100DF00003FB00F45A4D2F1997F920A0BAF1000F08
:100E0000C0F2AC8097F822604FFA86FBBBF1000F6E
:100E1000C0F2A480534800F05BFE53492A590B6886
:100E2000F6B213430B6004310B687A683046134303
:100E30000B6004310B68BA6813430B60D7F80C9051
:100E40000023C9F8C83F97F921803A6908EBCA0323
:100E5000136097F823403A7DE5B2294600F0A8F9DF
:100E600064B23046012616FA04F406FA08F808229D
:100E7000294600F093F93D4A4FEA0B339A1813685C
:100E800023431360394A4FEA0A339A18136843EA36
:100E9000080313605023C9F83830D9F8383043F4C8
:100EA000D063C9F838300223C9F834304FF44073A6
:100EB000C9F83030BB69C9F82430FB69C9F828305B
:100EC0007023C9F82C3097F8244065B2002D17DB49
:100ED00097F82510264B48B240EAC50216FA00F0F2
:100EE0001A60224A2B039A181368034313602046A2
:100EF000002200F053F91F4A136843F400431360C3
:100F000097F826604FFA86F8B8F1000F1CDB97F8C7
:100F10002740F6B2E5B230462946012200F048F9F2
:100F200012494FEA0833591864B20123A3400A68F2
:100F300030461A430A600822294600F02FF90D4A6C
:100F4000136843F480431360D9F8303043F0010351
:100F5000C9F8303097F8280000F04AF8BDE8F88F5B
:100F6000704F2000090D200028200D4020940D40D6
:100F700004410D4030D00040014B00221A60704700
:100F800000500D40014B08221A60704700500D4080
:100F9000024BA0221A6050221A60704700500D4088
:100FA00010B500F04DF8024B0B221A60FEE7C04668
:100FB00000500D40084A094B1A60094B80321A60F4
:100FC000084B80321A60084B80321A60074B4FF48E
:100FD00000121A607047C04600E100E0800900205E
:100FE00074090020780900207C09002008ED00E049
:100FF000044B41091A6800F01F000123834042F8A6
:101000002130704780090020044B41091A6800F024
:101010001F000123834042F82130704774090020EB
:10102000044B41091A6800F01F000123834042F875
:10103000213070477C090020EFF3108062B67047C2
:10104000EFF3108072B67047054A064B1A60064BE4
:101050001A68064B02EA0303B3F1807FF7D17047A9
:101060000101020100200D4004200D40000001019B
:10107000014B08221A60704774200D40024B02EBAE
:10108000C10243F822007047840900200B4B2DE970
:10109000F04107460D4603EB4116002457FA04F3CE
:1010A00013F0010FE1B204D056F824300BB12846FA
:1010B00098470134082CF1D1BDE8F0818409002063
:1010C00010B500218022024803F0D6FE10BDC046B4
:1010D0008409002010B500F083FD074B0321186838
:1010E000C0B2FFF7D3FF054BFF221A604FF07F42DB
:1010F00003F53F731A6010BD18C40D401CC40D40A9
:1011000010B500F06DFD074B02211868C0B2FFF763
:10111000BDFF054BFF221A604FF47F0203F53F73BA
:101120001A6010BD18B40D401CB40D4010B500F08D
:1011300057FD074B01211868C0B2FFF7A7FF054B09
:10114000FF221A604FF47F4203F53F731A6010BD0F
:1011500018A40D401CA40D4010B500F041FD064B35
:1011600000211868C0B2FFF791FF044BFF221A60FC
:1011700003F53F731A6010BD18940D401C940D4088
:10118000034A044B1A60044B803A1A607047C04609
:1011900080400D40080A0020040A0020034B01EBA8
:1011A000C0011B6843F821207047C046080A002090
:1011B000034B01EBC0011B6843F821207047C04678
:1011C000040A0020024A136843F03003136070479A
:1011D00000700D400E2830B594460BD1154A1568A5
:1011E00045F002031360144A146824F03F0343F0EF
:1011F00001031360114A136823F0FF0340EA03035D
:101200000B4343EA0C0313600D4B1B6813F0800F74
:10121000FAD00C4B196804330E281A6803D1064B18
:101220001C60044B1D6001F0FC0040EA022000B28B
:1012300030BDC04634000144F486084008700D40BB
:1012400000700D400C700D4020B1054A136843F04A
:10125000010303E0024A136823F00103136070479F
:10126000008608400848017811F0800F0AD1074A2B
:10127000ED2313601360E32313606FEA41636FEAA9
:101280005363037001207047F81400203888084029
:101290000A4B1B6813F0020FFAD1094AED231360C1
:1012A0001360084B1B680BB1EF231360064A012043
:1012B000137803F07F0313707047C0464C860840D4
:1012C000388808402C860840F8140020A0F10B0351
:1012D000DBB20F2B10B5044601D9FF201FE0114BE4
:1012E000114A1B6813F03F0F04D1137843F0100329
:1012F000137005E0137823F010031370FFF7C8FF95
:1013000005236343094A2C3B1360074B1B7813F0FA
:10131000100F01D1FFF7A6FF054B20461C7040B20D
:1013200010BDC04648860840F81400203C8608409E
:101330000C01002010B5104B1B6813F03F0F06D1B5
:101340000E4A137843F010031370FFF78BFF0C4B1A
:101350001B6813F0010FFAD00A4B084A1C68137877
:1013600013F0100F04D023F010031370FFF790FF59
:10137000C4F3001010BDC04648860840F814002091
:10138000648608404C860840044B186800F0220030
:10139000202814BF002001207047C0464C8608401A
:1013A000024B186800F040007047C0464C86084069
:1013B00070B50C4609B9022074E00D2808D8DFE8A2
:1013C00000F0090F1A1C23073041460767696B6E4E
:1013D000012067E0344B1B68003B18BF01235FE02E
:1013E000324B05221B6803F07F030B3B93FBF2F3A8
:1013F0000B33DBB254E02E4B00E02E4B1A68043B5B
:101400001B6843EA02234BE02B4B1B6803F00102ED
:101410002A4B0A601B6813F0200043D042F00203FD
:101420003EE0274B00221B68D8B2264901EBC203DD
:101430001B79834202D851F8323031E001320E2A52
:10144000F3D129E0204B1B685BB2493B28E01F4BDE
:101450001B6813F03F0F06D11D4A137843F01003A9
:101460001370FFF7FFFE1B4B1B6813F0010FFAD040
:10147000194B174A1D68137813F0100F04D023F08E
:1014800010031370FFF704FFA5F149035BB207E0F7
:101490000B2305E01A2303E06FF0170300E0072396
:1014A0002360002070BDC0462C8608403C86084062
:1014B000CC850840D4850840008608402486084032
:1014C0004086084000502000588608404886084062
:1014D000F8140020648608406086084070B50C4609
:1014E000072805D8DFE800F006111E232C04435618
:1014F000012058E0012902D1FFF7B4FE52E0002993
:101500004ED1FFF7C5FE20464DE0A1F10B030F2B96
:1015100046D8C8B2FFF7DAFE40B2B0F1FF3F41D182
:10152000043040E08AB202F0FF011F4B03E08AB2B0
:101530001E4B02F0FF011960120A04331A6031E0F9
:1015400031F003052CD101F00100FFF77DFE14F00E
:10155000020006D0164A2846136843F020031360A1
:1015600021E0134A136823F0200313601BE011F1FC
:10157000180F15DB072913DC0D220E48D10050F897
:1015800032309C4203DC43181A790B4BD6E7013A00
:10159000F3D207E001F0FF03084A4933136001E08A
:1015A000022000E0002070BDC8850840D0850840BA
:1015B0002486084000502000408608405886084095
:1015C000092801D001200DE0082A0AD149B10648B6
:1015D000002250F804398B540132082AF9D1002036
:1015E00000E002207047C046C4850840092801D0A9
:1015F00001200CE0082A09D141B10548013A8B5C71
:10160000013A40F8043BFAD2002000E00220704783
:10161000A885084070B5314B84461B6813F0400024
:101620005BD02F4B1B68DBB213F0800F42D1042B31
:1016300040D9023B8B423DDCDDB2032D01D80022B4
:101640001DE06C1E0CEB0401032000F0B9F92549E4
:101650002401032044EA010100F0BCF9032000F05A
:10166000C3F9032000F0D8F9032000F0E1F90028C5
:10167000FAD107E01A4B1B680CF802300132D3B2E2
:10168000AB42F7D3164B19681B68DCB214F0800F1D
:1016900010D0493949B2042089B201F0B9FC0320C5
:1016A00004F07F0101F0B4FC0C4A136813F0400F02
:1016B00006D111E00C4AED231360002013600CE00A
:1016C000136813F0800F03D0084801F08DF803E091
:1016D000054AED2313601360284670BD4C86084010
:1016E0002888084002C0010C388808407C0000208F
:1016F00010B5084B1B68042B04D0074A137843F03D
:1017000040031370034B00221A60044801F06CF888
:1017100010BDC0462C880840F81400207C00002032
:1017200010B5034801F060F8024B00221A6010BDAA
:101730007C0000203488084070B5274C94F90030B4
:10174000002B0FDBFFF790FA0546FFF78BFD2378A0
:1017500043F010032370FFF787FA6FF009035B1B58
:10176000C342F8D4FFF7E6FD002831D01B4B1B68BD
:1017700013F020012CD11A4BE9221A600C4604E028
:10178000631C0620DCB2FFF71BFA144B1B6813F036
:10179000020F01D1032CF3D1104B1B6813F0020F81
:1017A00005D10F4AEE2313600124136005E00B4BB3
:1017B0001B6813F00200FAD10446074A137813F0AD
:1017C000100F06D023F010031370FFF761FD00E047
:1017D0000224204670BDC046F81400204C86084004
:1017E0003888084070B505460C46134B1B6813F04B
:1017F000020FFAD1114B93F90030002B01DBFFF7F8
:1018000031FD0F4AEE23136013600E4BA21C013C06
:101810001A602919022000F0CBF80B49240144EA90
:101820000101022000F0D6F8022000F0DDF80220CD
:1018300000F0F2F8002070BD4C860840F81400203B
:10184000388808402888084002C001C010B50C46FE
:10185000FFF7C8FF2046FFF76FFF10BD2DE9F041ED
:10186000294E337813F0010701D000204AE0274BBE
:1018700001251D6004331D6004331D60244BF822D4
:101880001A60092203F5C8731A600C32A3F590732D
:101890001A60204B0B221A601F4A40231360136802
:1018A0007F2443F0200313601C4BD5221F60483374
:1018B0001C60103B1A601A4B1878FFF707FD194A95
:1018C0008D20136843F004031360FFF791FB164B60
:1018D0008E201C60FFF78CFB022000F091F813496A
:1018E000022000F06DF8032000F08AF803200F4971
:1018F00000F05EF80E48394600F0FAFF33782846CB
:101900002B433370BDE8F081F8140020A8200D406F
:101910005886084004600D40248608400886084028
:101920000C0100208C8608409486084028880840D6
:101930007C00002070B50288054622B140F2BA331F
:101940009A422AD103E040F2BA332B8001E0822987
:1019500001D0012025E001F0ADFB01F0FDFA80216E
:10196000FFF758FE002805DD80B201F0EFFA0D4BBD
:101970001B6998470C4A137813F0400FE3D00023FB
:1019800013700A4B1C68FFF783FCFFF767FF14F026
:101990003F0FD8D0FFF766FCD5E74FF00003038078
:1019A000032070BDA4502000F81400204886084091
:1019B000032802D8014B0201995070470000002013
:1019C000032803D8024B03EB001359607047C0464D
:1019D00000000020032804D84300024A013342F8E3
:1019E0003310704700000020032805D801238340EE
:1019F00002490A6813430B607047C04628F00F4045
:101A0000032805D80123834002490A6813430B6069
:101A10007047C04620F00F40032805D801238340BB
:101A200002490A6813430B607047C04614F00F4028
:101A3000032801D9002006E04300034A013352F88D
:101A4000333003F00700704700000020024B4FF0D6
:101A5000FF321A607047C04604F50F40014B012267
:101A60001A6070474CF00F4010B5094C002140221D
:101A7000204603F001FA074B01221A6004332E209E
:101A80001C60FFF7B5FA2F20FFF7B2FA10BDC04671
:101A90000000002004F00F4030BF70470A4B1B6865
:101AA00013F4801FFAD1094A136823F480331360BA
:101AB000054B1B6813F4803FFAD1044A136843F4C2
:101AC000003313607047C04604200D4000200D40D5
:101AD000074A136883420AD00BB91A4604E05368D8
:101AE000834204D01BB90122014B43F82200704706
:101AF0000C0A0020054B00221A60054A136843F0C7
:101B000004031360034B01221A70704758200D40E4
:101B100010ED00E0F914002010B52B4B1B6813F0FA
:101B20003F0F15D1294C2368002B47D0984778B137
:101B30006368002B42D0984700283FD108E0FFF7A8
:101B40008DF80446FFF790F8201A092800D914B937
:101B5000FFF7A2FF37E01E4A136823F40033136037
:101B60001C4B1B6813F4801FFAD1194A136843F405
:101B700080331360174B1B6813F4803FFAD0FFF7D4
:101B800073F8201A092802D8FFF788FF1BE06328A2
:101B900003D9114B1A78022A00D001220F4B1A6088
:101BA00000F0F0FD10B9FFF759F828B9FFF776FFFC
:101BB0000A4B00221A6006E030BF04E0064B1B7897
:101BC000002BC5D0BBE710BD488608400C0A00209A
:101BD00000200D4004200D40F914002058200D4035
:101BE00010B50B4B1B6813F0030F10D0094B1B688B
:101BF00013F0806FFAD1074B1B6813F0806FFAD097
:101C0000FFF71AF8FFF74AFF014B00221A6010BDD8
:101C100058200D4004200D4010B50446E1B20020CC
:101C2000FFF792F8204610BD70B50546002402E08B
:101C3000FFF7F2FF01342B1913B1285D0028F7D10B
:101C40000A20FFF7E9FF204670BDC04670B5054683
:101C50000E46002404E0B44207D2FFF7DDFF013452
:101C60002B1913B1285D0028F5D1204670BDC04660
:101C700010B51B4B0C461A781AB9013B1B78122B76
:101C800004D0631E03F12811002225E0154B1B78B8
:101C90004B2BF6D14FEA510C0CF1FF3303F1281115
:101CA00002E04B788354013201396245F9DB631E4F
:101CB00003F12812604402E0537800F8013C04F577
:101CC00020132633013ACCEB030301309A42F3D1BF
:101CD00005E04B78835401320139A242F9DB10BD93
:101CE0002B002800290028000FB407B504AA52F8D9
:101CF000041B0448019200F061F8BDE80E4004B0F6
:101D00007047C0468C000020084610B511460AB145
:101D1000FFF79CFF002010BD10B5044601680020AD
:101D200004E0303A0A2303FB002001310A782F2A0D
:101D300001D9392AF5D9216010BDC04610B5044635
:101D40001846029B114613F4804F0C4A0C4B14BFEB
:101D50009C469446226809E001F00F031CF803300A
:101D600002F8013D0B0943EA0071000951EA000342
:101D7000F2D120682260801A10BDC0460B532000AB
:101D80001C53200070B505460C4607E02B686868B8
:101D9000094910229847034658B9103C102CF5D831
:101DA0000CB9234605E02B6868680349224698472A
:101DB0000346184670BDC046FB5220002DE9F04F87
:101DC00091B00F91002102900792049149E3531CB6
:101DD0000F930F9A13780BB1252BF8D1A2420DD097
:101DE0000299121B0B68486821469847002840F06A
:101DF0003F830F9B049A1B1BD21804920F9A1378EF
:101E0000002B00F03383511C0F915378002B00F00E
:101E10002D834FF000080B782B2B0DD004D8202BEE
:101E20000DD0232B14D10DE02D2B02D0302B0FD150
:101E30000BE048F0010813E048F0060810E048F015
:101E400002080DE048F008080AE048F0100807E032
:101E50000F910A78A2F13103DBB2082B07D801E019
:101E60000131D8E70FA8FFF757FF05900FE02A2AA6
:101E700002D0002305930AE0079A131D0793106808
:101E80000028B8BF48F001084B1C05900F930F9A2B
:101E900013782E2B16D1511C0F915278A2F13003DA
:101EA000DBB2092B04D80FA8FFF736FF06900CE031
:101EB0002A2A07D1079A4B1C0F93131D0793126808
:101EC000069202E04FF0FF3106910F9B1A786C2AC0
:101ED0000AD15A1C0F925B786C2B02D148F0800813
:101EE0000BE048F060080DE0682A0BD15A1C0F92F5
:101EF0005B78682B04D148F02008531C0F9301E055
:101F000048F040080F9B1A78652A45D019D8472A0F
:101F10004BD00BD8452A42D03BD8412A4BD05BD876
:101F2000002A00F0A382252A56D153E0612A3FD02F
:101F300002D8582A50D126E0632A3FD0642A4BD1D8
:101F400015E06F2A19D007D8672A2BD01ED3692A2B
:101F50000DD06E2A40D13AE0732A32D002D8702ACE
:101F60003AD131E0752A05D0782A35D108E048F415
:101F7000245831E048F410682EE048F488582BE0EB
:101F800048F4C85828E048F4B24825E048F40078FE
:101F900022E048F484481FE048F402481CE048F47A
:101FA000424819E048F4813816E048F4A13813E0BB
:101FB00048F4C13810E048F4E1380DE048F4A06876
:101FC0000AE048F4806807E048F4407804E048F408
:101FD000E06801E048F4C06801330F9308F4E0635F
:101FE000B3F5806F00F07D8107D8B3F5807F1DD0F9
:101FF000B3F5407F40F03582B1E1B3F5C06F08D052
:10200000B3F5E06F00F02782B3F5A06F40F02982AE
:10201000F5E1029A95491368506801229847002813
:1020200040F02682049B013304931AE2069A0EA91B
:10203000002A0E9102DA0123069301E028F010082D
:1020400018F40052039208F0E00335D0402B0FD073
:1020500003D89BB1202B2AD104E0602B0ED0802B1B
:1020600025D113E0079B1A1D079293F9003009E070
:10207000079B1A1D0792B3F9003003E0079B1A1D56
:1020800007921B681A464FEAE27308E0079B073382
:1020900023F0070303F108020792D3E90023002B82
:1020A00007DA564263EB43074FF0010A33E00022A0
:1020B000002316461F460CE0402B14D003D8BBB1BA
:1020C000202B04D108E0602B12D0802B18D00026E2
:1020D00000274FF0000A1EE0079A131D0793167899
:1020E0004FF0000715E0079B1A1D07921B8803E0BD
:1020F000079B1A1D07921B681E464FF0000708E059
:10210000079B073323F0070303F108020792D3E983
:102110000067DDF80CA008F4C053B3F5805F08D069
:10212000B3F5C05F38D0B3F5006F06D04FF0000BA9
:102130003AE00C463246394626E0894634463D466A
:1021400010E0204629460A22002302F087F93032A7
:1021500009F8012D204629460A22002302F07EF9C3
:1021600004460D4654EA0503EBD10E9BCDF838909A
:10217000C9EB030B18E002F00703303304F8013D0C
:10218000D30843EA4172C90852EA0103F3D10E9B16
:102190000E94C4EB030B07E00EA832463B46CDF885
:1021A0000080FFF7CBFD8346069941F208035945AD
:1021B0008ABF069A4FF00009CBEB020941F60802EC
:1021C00008EA02029A4205D1B9F1000F08BF4FF0A8
:1021D00001090FE041F608039A420BD156EA0703C2
:1021E00008D0234A234B18F4804F14BF1C461446D2
:1021F000022501E000242546039989B1BAF1000FB8
:1022000001D01D4C0BE008F00603022B06D0062B74
:102210001A4B08BF012508BF1C4601E0184C0125D8
:1022200009EB0B03059A5819824201D8002601E0F8
:10223000059B1E1A18F001030CD118F0100F02D0E4
:10224000B1441E4606E002983146FFF79BFD002888
:1022500040F00E8145B102992A460B684868214634
:102260009847002840F004814C4615E02D5320008B
:102270002F532000325320003553200037532000C5
:10228000A4522000029A7D49136850681022984792
:10229000002840F0ED80103C102CF3D844B1029996
:1022A00022460B68486875499847002840F0E0804E
:1022B000029A0E99136850685A469847002840F0D1
:1022C000D78018F0010F06D002983146FFF75AFD6B
:1022D000002840F0CD8004990BEB01035B194B44BF
:1022E0003AE0079A131D0793156815B90624644D43
:1022F00006E02A4600E001321378002BFBD1541B84
:10230000069A002A02DB944228BF1446059BA3428A
:1023100001D8002601E005990E1B18F0010F06D127
:1023200002983146FFF72EFD002840F0A180029A66
:1023300029461368506822469847002840F0988044
:1023400018F0010F06D002983146FFF71BFD002858
:1023500040F08E80049963189E19049681E0079AD4
:1023600010A8131D07930DF13503126840F8083DBE
:102370000023CDF80080FFF7E1FC014630B90E9B49
:1023800001215A1E0E92302203F8012C0E9ACD1C08
:10239000531E0E93782302F8013C0E9A531E0E939F
:1023A000302302F8013C0E9A531E0E93232302F8A9
:1023B000013C059AAA4201D8002401E0059B5C1B60
:1023C00018F0010F05D102982146FFF7DBFC002829
:1023D0004ED102992A460B6848680E999847002802
:1023E00046D118F0010F05D002982146FFF7CAFC2C
:1023F00000283DD1049AAB181C19049431E0079BC6
:102400001A1D07921B688DF83830059B012B01D8E7
:10241000002401E005994C1E18F0010F07D1029825
:102420002146FFF7AFFC18BB049A121904920299D7
:1024300001220B6848680EA99847C8B918F0010F27
:1024400004D002982146FFF79DFC88B9049A631CCA
:10245000D218049205E0079B04991A1D07921B6885
:1024600019600F9C2378002B7FF4B3AC049801E033
:102470004FF0FF3011B0BDE8F08FC0464053200050
:102480003953200070B50546002402E0002100F019
:102490002FFA285904340028F8D170BD70B503888C
:1024A0000646154613B14A2B32D112E01B4800F004
:1024B00077FB044604E0201DA16800F03BF9246886
:1024C000002CF8D1164B01221A704FF04A033380CA
:1024D00001E0882901D001201EE0104800F060FBD7
:1024E000044612E0231D9D420ED10C48214600F007
:1024F00061FB0C4A636915681360A3690BB1E0695D
:102500009847084B1D60E0E72468002CEAD1DCE71F
:102510004FF000030380032070BDC046140A002062
:10252000FA140020240A002010B5074B04461B783B
:102530001BB1043000F06CF801E0C3600361034894
:10254000214600F037FB10BDFA140020140A0020C9
:1025500070B50C4E05463068EB610B4B6861AA61A3
:102560001B780C463BB13468084B281D336000F0E3
:10257000E1F8346000E0A9600548294600F038FB26
:1025800070BDC046240A0020FA14002094000020E8
:10259000140A0020054B10B500241C70044800F0FC
:1025A000FBFA0448214600F0A3F910BDFA140020FC
:1025B000140A0020940000207047C046024B18689F
:1025C000003818BF01207047180A002010B50E4CC3
:1025D0002268AAB1FEF7EAFA236819685A68521805
:1025E000C0EB020E996807E04B680A6889689B187F
:1025F0001B1A9E4528BF9E460029F5D10EEB00020E
:10260000024B1A6010BDC046180A00201C0A0020A8
:1026100010B50B4904460A68904203D183680B60E9
:102620000BE01A461AB19368A342FAD103E00023E3
:10263000A360E36010BDA3689360FFF7C7FFF6E7F0
:10264000180A002010B5024800F0CEF810BDC046B0
:10265000A400002070B50646008810B1592842D168
:1026600006E0234B18604FF05903338001203EE011
:10267000872915D11E4B186800E080680028F0D02B
:10268000C3689342F9D01A4B186005E0CB689342B7
:102690000ABF8B680846836081680029F6D1E2E7AB
:1026A0008229E0D1124B00251C6819E0204600F079
:1026B000D5F998B1E0688821224600F06DF858B944
:1026C000E060A2680DB1AA6001E0094B1A60002326
:1026D000A360FFF77BFFE5E7FFF7B4FF2546A4689B
:1026E000002CE3D1BFE74FF000033380032070BD1F
:1026F000180A002010B50446FFF7A4FFE3685BB199
:102700000A4B1A6806E0A24203D1094B1B68D3604A
:1027100009E09268002AF6D1054B044A1B68E36081
:102720001368A3601460FFF751FF10BD180A002062
:10273000240A002010B5044600F09EF92046FFF759
:10274000D9FF10BD024B1878421C1A707047C04662
:10275000FE140020064B6FF075021A70054B76329E
:102760001A70054B1A70054B1A60054B1A607047BA
:10277000FE140020FB140020FD140020280A002075
:10278000240A0020024B1A78024B18781018704760
:10279000FF140020FD14002070B50F4E054696F87A
:1027A00000C00846BCF1200F144601D1012011E001
:1027B0000A4B0B491A780B4B624402F01F021A7045
:1027C0000C235343CA18C8540CF10103546095609C
:1027D0000020337070BDC046FD140020FB140020A3
:1027E0002C0A00200015002040B1837B013BDBB2A6
:1027F000012B03D8024B0122C2731A707047C046E6
:10280000FF140020807B003818BF01207047C046AD
:102810002DE9F0411F4B04461F681F4B0E461B68F5
:10282000A34202D0002BFAD132E0002C30D0204657
:10283000FFF7E8FFD0B10023A373174B1D6807E033
:10284000AC4204D028468721224600F027F82D68A4
:10285000002DF5D1A3684BB1B44207D00D4B04F164
:102860000C001C60A36883212A4698470A4A116815
:102870008C4209D12368136008E00B68A34202D19F
:1028800023680B6002E019460029F6D1014B1F6056
:10289000BDE8F081240A0020280A002070B5837B5F
:1028A000044613F0010F0D4615D083689BB10A4B07
:1028B000186002238373836800F10C009847023884
:1028C000012801D9832D04D120462146FFF7A0FF1E
:1028D00001E00123A37370BD240A002070B5034CEE
:1028E0002568FFF7DBFF256070BDC046240A002085
:1028F00010B50A4B0A461B68194600E00968814278
:102900000AD00029FAD10360044B186001238181A9
:1029100083738131FFF7E2FF10BDC046280A002013
:1029200010B50A4A00231370094B1C680AE0E37BC8
:102930003BB101230022A373E27320468221FFF7FB
:10294000ADFF2468002CF2D110BDC046FF1400205A
:10295000280A00202DE9F041234B1B780BB1FFF72B
:10296000DFFF224F3E78002E36D0214C0C232278F8
:1029700020495343C818C95C1F4B01321970456880
:102980001E4B02F01F021D6080681D4B22701860F4
:10299000731E3B70C8B91B4B1A681B4B1A600FE0C3
:1029A000114B1B780BB1FFF7BBFF134B164C19787B
:1029B000124B20681A68FFF771FF23681B682360B9
:1029C000114B1B68002BEBD106E0812901D10123BB
:1029D00083732A46FFF762FF034B1A78034B18787C
:1029E0001018BDE8F081C046FF140020FD1400203F
:1029F000FB1400202C0A0020FC140020200A0020D8
:102A0000AC0B0020280A0020B00B002010B5074CAA
:102A1000206848B100232360436881689847206894
:102A200010B10068FEF744F910BDC046B40B002099
:102A300010B5074A0C4611684360029B046083602E
:102A4000106011B92046FEF733F9002010BDC046D2
:102A5000B40B002010B5FEF7FFF810BD10B504460A
:102A6000FEF7A4F82368C3F101031B1860689842BD
:102A70002CBF0020012010BD10B541600446FEF7B8
:102A800095F8206010BDC04670B504880546672CD7
:102A900009D0792C34D0002C3AD1FFF753FE1F4BCC
:102AA00018701F4B1C601F4800F036F9B0F1FF3F53
:102AB00004D14FF067032B8002302DE00A2818491B
:102AC00007D00A687E2AEEDC174B9854531C0B6023
:102AD000E9E70B68144A0024D45401330B600F4B10
:102AE00020461978FFF758FE104B852118682246BA
:102AF000FFF752FE40B94FF079032B8001300BE015
:102B0000852901D0012007E0054B00221A60CAE7A1
:102B10004FF000030380032070BDC04676160020EE
:102B2000C00B0020B80B002082150020240A0020D2
:102B300010B505480549802200F0D0F8044800216E
:102B4000FFF7D6FE10BDC046B80B002001150020CF
:102B5000B40000200D2810B5014601D1002014E07A
:102B60000A4C23782BB90A4800F0C0F848B9012371
:102B700006E00A2805D1064800F0B8F808B100239D
:102B800023700448FFF730FE012010BD811500209E
:102B9000B80B0020B4000020002303607047C0463B
:102BA00000687047006818B103680BB11846FBE76E
:102BB0007047C046036883B11A4600230BE08A427F
:102BC00007D111680BB9016000E0196000231360A0
:102BD00003E013461268002AF1D1704770B505462C
:102BE0000C46FFF7E7FF2B6823602C6070BDC046E2
:102BF00070B505460C46FFF7DDFF0023236028462D
:102C0000FFF7D0FF08B92C6000E0046070BDC0463B
:102C10000368002001E01B680130002BFBD17047E6
:102C200000B900E000687047064A136843F00403E7
:102C30001360054B186804331B6840EA032080B218
:102C40007047C04600700D4014700D401C4A136858
:102C500023F00C0313601B4B01221A60194B1B68F5
:102C6000012BFBD1184B08221A60DB3203F50573E8
:102C70001A60164B1B6813F0010FFAD000220DE00A
:102C8000134B01321B6803F0010341EA03039BB2BB
:102C90005B00102A99B2F3D10A4611B911460022FD
:102CA000EEE748F203039942F8D00A4AC1F30F2332
:102CB000136001F0FF031360074BEF221A607047A7
:102CC00000700D40A8200D4024860840648608400E
:102CD0009C86084014700D40388808400023013A53
:102CE00001600271437183717047C04690F805C05E
:102CF00083790279C3EB0C031340934201D1002086
:102D000008E0036803F80C1043790279013313409B
:102D1000437101207047C0468179437990F804C01F
:102D20005B1A13EA0C0F02D14FF0FF3006E0036884
:102D30005A5C4B1C03EA0C03837110467047C04673
:102D400010B543695B6803B1984710BD10B50449DD
:102D500004461A2000F07CF9204600F083FE10BDE6
:102D60003016002010B500F081FE10BD70B504468D
:102D70000E461546044A00F07DFE65613046034963
:102D800000F03AF870BDC046705020007953200022
:102D900037B504461A2000F049F90DF10605014641
:102DA000284600F0A3F863691B6813B12046294642
:102DB00098473EBD10B504460548FFF7F1FE04E014
:102DC0008388A34203D0FFF72BFF0028F8D110BD62
:102DD000C40B0020014610B50148FFF7EBFE10BD03
:102DE000C40B0020034610B5818002481946FFF746
:102DF000FFFE10BDC40B002070B50D46FFF7DAFFD3
:102E0000044620B18560284600F024FF207370BD81
:102E100010B50248FFF7C0FE10BDC046C40B00202D
:102E200070B500F02FFF05460848FFF7B9FE05E032
:102E3000636803B198472046FFF7F2FE0446002876
:102E4000F6D115B1284600F001FE70BDC80B002078
:102E500010B500F089FA00F02DF900F043FE00F003
:102E60001FFF02204FF400714FF4F0524FF4E123A2
:102E700000F042FE10BDC04610B5044600F0F2FE60
:102E800000B907E000F094F9034B044821469B6821
:102E90009847012010BDC046D4502000A12E20002C
:102EA0002DE9F04106460B480D461746FFF778FE20
:102EB00006E0A3680BB1284698472046FFF7B0FE0E
:102EC00004460028F5D1304629463A4600F0C4FDB4
:102ED000BDE8F081C80B002010B5022201F050FFC0
:102EE000D0F1010038BF002010BDC0460988018024
:102EF0007047C046064B10B51B689847054B5B688A
:102F00009847054B5B689847044B5B68984710BD32
:102F1000C84F2000A4502000885020007850200086
:102F200010B5084CB4F800C0844501DA002008E070
:102F3000054983B20A8801209A18C3EB0C030A8062
:102F4000238010BDC00E0020C20E0020014B18804F
:102F50007047C046C00E0020034B1888034B30302A
:102F60001B6818187047C046C20E0020845020000D
:102F7000024B1A78024B186880187047021600201E
:102F800084502000044B1868044B30301B68181A1A
:102F900018BF01207047C04684502000CC0B002091
:102FA000014B18687047C046CC0B0020014B1888B5
:102FB0007047C046C00E0020044B1B78C3F130039D
:102FC000D8B208B9024B18787047C04602160020E4
:102FD000C20E002010B5FFF7EFFF024B1B88C01890
:102FE00080B210BDC00E002070B5084E0446357882
:102FF000854208DBFFF7EEFF2018802803DC2B1B3F
:103000003370012000E0002070BDC0460216002091
:10301000024B23F8101001207047C0463A160020DA
:10302000014B33F8100070473A160020A0F11A0344
:10303000014800EB430070473216002010B50249EA
:103040000248FFF749FF10BD105120003416002040
:10305000A0F11A03034810B500EB4300FFF746FF49
:10306000012010BD3216002010B500220B4B4FF08E
:10307000000199520232342AF8D109480949FFF770
:1030800035FF09480749FFF731FF08480549FFF7B1
:103090002DFF07480349FFF729FF10BD3A1600200E
:1030A0003216002010512000341600203616002061
:1030B00038160020084B002210B51A80074B1A80E2
:1030C000074B30321A70074B1B689B18064A136077
:1030D000FFF7CAFF10BDC046C20E0020C00E002080
:1030E0000216002084502000CC0B0020034610B5AF
:1030F00034220C460448194601F072FE214608228B
:10310000024801F06DFE10BD3A1600203216002074
:1031100010B534220C46044901F062FE20460349F2
:10312000082201F05DFE10BD3A1600203216002084
:1031300070B5114D114C95F800C02388CCF13002C8
:10314000D318802B064601DD002014E00C4B1968D3
:10315000614401F045FE0B4B28781A880A4BC0F1F8
:103160003000196830188918228801F039FE238848
:103170002A783033981A70BD02160020C00E002045
:1031800084502000C20E0020CC0B002010B5064B4E
:10319000064C196822788918C2F1300201F020FE2D
:1031A0002078C0F1300010BD8450200002160020AD
:1031B00010B5FFF7E7FE48B1114B1868114B3030DE
:1031C0001968114B1A8801F00BFE18E00F4B1A8892
:1031D000AAB10D4B1B8803F13000094B1C6802F1AA
:1031E0003003E118302203E011F8013CA35401320E
:1031F00001318242F8DB054B4FF000021A8010BD0E
:1032000084502000CC0B0020C00E0020C20E0020F5
:1032100070B505460C46FFF74DFF064B802C28BFC6
:10322000802418682946224601F0DAFD024B204628
:103230001C8070BDCC0B0020C00E0020036803EB87
:103240004103B3F88200704710B504462146144884
:1032500000F0DCFB60B12468B4F880102046FFF772
:10326000D7FF04F1820004F1B601FFF73FFF16E03B
:103270000C48214600F0CAFB88B1FFF71BFF2188EC
:103280006068FFF7C5FF94F83800FFF7ADFEFFF761
:103290006FFE04F1080194F8382001F0A1FD10BD83
:1032A000C4000020D000002010B5044621460A4882
:1032B00000F0ACFB28B10948216800F08FFB0648FC
:1032C00005E00748214600F0A1FB18B1044821465B
:1032D00000F084FB10BDC046C4000020DC000020CC
:1032E000D000002010B5016801F18200B631FFF76F
:1032F0000FFF10BD70B5FFF745FE88B1174800F00D
:1033000057FB0446D8B1FFF751FE2080FFF748FE77
:10331000606004F10800FFF739FF84F838000EE020
:103320000F4800F045FB0546A8B10E4800F040FBF1
:103330000446286028B90A48294600F04FFB254674
:1033400009E0FFF7F5FE04F1B601A4F8800004F1EE
:103350008200FFF7DDFE284670BDC046D000002089
:10336000C4000020DC00002010B5054800F05EFB22
:10337000044800F05BFB044800F058FB10BDC04659
:10338000DC000020C4000020D0000020034B10B55A
:10339000DB699847002808BF102010BDA45020000A
:1033A000024B10B51B69984710BDC046D450200091
:1033B000024B10B55B69984710BDC046A450200071
:1033C000024B10B59B69984710BDC046A450200021
:1033D000024B10B5D86900B1804710BDA450200041
:1033E00010B5044648B1006BFFF7DAFB024620B186
:1033F000024B03482146DB68984710BDA4502000CB
:10340000E93520002DE9F04107461B208846FFF7EB
:103410000DFE4F4A054613782BB901331370FFF7A1
:1034200003FC4C4B18804B4A138813B94FF001032F
:103430001380484B0A2019884A1C1A80FFF7E8FDC0
:103440004548FFF7ADFB07E0201D2946FFF744FD87
:10345000D8B92046FFF7E4FB04460028F4D16EE01B
:103460002946201DFFF742FD002304F12C002063B4
:1034700084F8283084F8293084F82A30E362FFF792
:103480008BFB35482146FFF7B3FB206BFFF7C0FBF2
:1034900007284DDC314800F08BFA064600283BD067
:1034A0002F4800F085FAB060002831D0FFF722FFE6
:1034B000706048B30920B568FFF7B2FD10B9032367
:1034C0002B7203E00920FFF7ABFD28720F202F605D
:1034D000C5F80480FFF7A4FD012804D1206B314614
:1034E000FFF77CFB03E0206B3146FFF781FB206B8D
:1034F000FFF756FB864229D104F108000021194A42
:103500002346FFF725F821E01548B16800F066FA78
:103510001248314600F062FA206BFFF779FB38B9A8
:103520000D482146FFF746FB0F48214600F056FAAA
:10353000384641460422012300F0D6F806E00A4846
:1035400000F036FA044600288AD1F1E7BDE8F081A0
:1035500027160020B4140020780D00200001002060
:10356000E8000020E1332000F400002070B504469C
:103570000D4671B3006BFFF71DFB6868FFF794FE03
:10358000A968144800F02AFA2946134800F026FAE0
:10359000206BFFF705FB04F1080578B1002384F8E0
:1035A000283084F8293084F82A30FFF7EFFE0B4AE0
:1035B000014623462846FEF7CBFF0AE02846FEF7E1
:1035C000B3FF07482146FFF7F5FA0648214600F009
:1035D00005FA70BDE800002000010020E133200062
:1035E000780D0020F40000202DE9F84F89460546AB
:1035F000002863D0032914D8DFE801F00208020E86
:1036000090F82830D31880F828300AE090F8293054
:10361000D31880F8293004E090F82A30D31880F8C5
:103620002A30286BFFF7BCFA0CE00A217068FFF71C
:1036300005FE04460A20FFF7F3FC844206D030461C
:10364000FFF7EEFA06460028EFD137E0B468002C09
:1036500034D009F1FF33012BD4F800A0D4F804B022
:1036600095F8287020D8FFF791FE8046FFF7DCFA26
:1036700095F82820237A9A4216D2032FB4BF3B46EE
:10368000032301229A4002FB08F2B0FBF2F102FB95
:1036900011012B4605F108004144094AFEF758FF85
:1036A0007068FFF71FFE09E028463146FFF75EFF0E
:1036B000504659464A463B4600F016F8BDE8F88F9A
:1036C000E133200010B5054800F0B0F9044800F0DF
:1036D000ADF9044800F0AAF910BDC0460001002071
:1036E000E8000020F400002010B5844618B1084618
:1036F00011461A46E04710BD024B10B51B6A9847A9
:1037000010BDC046C84F200010B5034B08B11B6A5E
:1037100000E05B6A984710BDC84F2000002070474A
:1037200010B5FFF7E9FF10BD10B5FFF73FFCFFF73D
:1037300013FCFFF73BFC032816D00C4BDB689847C3
:10374000002811DB1B20FFF771FC0949FFF7C4FBC0
:1037500010B9FFF773FC38B100F09CFB20B900F002
:10376000B5FB044BDB68984710BDC046C450200031
:1037700030160020885020002DE9F7438046894606
:103780001A203949FFF764FC01210B20FFF740FCA8
:10379000364B9B689847002801DA052258E0FFF76E
:1037A000E7FB334E87787568FFF7E2FB0446FFF7C7
:1037B00011FC01462046A847FFF740FCB3690446C8
:1037C0009847002841D11CB9F369984700283CD19B
:1037D000FFF700FC264B9B68984718B1022834D0AD
:1037E000042235E0002C3CD1FDF73EFA0446FDF7FB
:1037F000CFFBFDF739FA6FF00C031B1BC342F8D463
:103800001B4CA369984728B9E369984710B96369C5
:103810009847E0B9FDF728FA0446FDF7B9FBFDF734
:1038200023FA6FF014031B1BC342F8D4104CE36956
:10383000984760B1032123690DF1050098470328DB
:1038400003D19DF80730BB420BD0012200E00222D9
:103850000024404649460123FFF746FF2046BDE8C5
:10386000FE8301240022F4E730160020C45020001B
:10387000C84F200070B506460D4609E05068146830
:10388000FFF7E2FC30462946FFF776FF224608B1F3
:10389000002AF3D170BDC04610B5FFF76DFF10BD13
:1038A000024B10B51B689847023010BDF450200041
:1038B0000B4B70B5DB689847061E0EDBFFF74CFB21
:1038C000057804464DB90220FFF72AFB28B160783D
:1038D000FFF73CFB6570B01C01E04FF0FF3070BD9E
:1038E000F450200010B50220FFF77EFB58B1FFF71F
:1038F0003FFB002303704370044B5B68984700282C
:1039000001DB023001E04FF0FF3010BDF450200029
:1039100070B5FFF7E7FF061E24DBFFF749FC134BEA
:10392000DB689847F0B1FFF717FB0446FFF73EFB53
:1039300004F8010CFFF74EFB2A2815DCC0F12B041C
:10394000FFF70AFB0546FFF731FBE4B200212246F0
:10395000281801F091FAFFF729FB001980B2FFF750
:10396000F5FA01E04FF0FF36304670BDD45020002C
:1039700010B5804710BDC04601207047024B10B5FE
:103980009B68984710BDC0467850200000207047C3
:1039900070B504460D4614200121FFF739FB034B97
:1039A00020469B682946984770BDC0468850200035
:1039B0000146B0F802C000200BE04B681A181B5CEF
:1039C00033B9013313700A888B6802FB003003E0BF
:1039D00001306045F1DB00207047C04610B5044659
:1039E0008268B0F802C000200CE08A4207D1626809
:1039F000135C0BB1013B13546368185C05E023882A
:103A00000130D2186045F0DBFF2010BD8C46816884
:103A10008C4501D2002007E00388428802FB031393
:103A20009C452CBF002001207047C04610B50446BD
:103A300000216288406801F01FFA63882288A0682C
:103A400000215A4301F018FA10BDC04610B50369B1
:103A50001B6803B1984710BD10B503695B6803B1DB
:103A6000984710BD10B5FFF707FA10BD10B5FFF766
:103A7000B1F910BD70B504460E461546FFF7B2F910
:103A8000256130460149FFF7B7F970BD9753200013
:103A9000014B18607047C046480E002010B5024820
:103AA000FFF77EF810BDC046440E00202DE9F0411E
:103AB00006460B480D461746FFF772F80BE0838861
:103AC000AB4206D1846844B131462A463B46A04702
:103AD00003E0FFF7A5F80028F1D1BDE8F081C0466A
:103AE000440E002010B50248FFF756F810BDC0463E
:103AF000440E00207047C0462DE97043094C05462E
:103B00000E46904620462946074A9946FFF72EF969
:103B10000648A665C4F85C80C4F86090FFF7B8FF5B
:103B2000BDE870834C0E0020EC502000C13B20000B
:103B300073B50E46FFF710FA0546022229460DF12D
:103B4000060001F04DF9BDF80640FFF72FFAA4007A
:103B50000234844215D8023500240EE0294604229E
:103B60000DF1020001F03CF93046BDF80210BDF83D
:103B70000420FFF79BFF04350134BDF806309C425A
:103B8000ECDB7CBD10B50B4C0023616E04F13800FA
:103B9000094AFEF7DDFCFFF747F8616E074AB0FB04
:103BA000F1F303FB110104F118000023FEF7D0FC30
:103BB00010BDC0464C0E0020DD3B2000F93B20002C
:103BC00010B59DF80830012B04D1034A936D53665C
:103BD000FFF7D8FF10BDC0464C0E002010B5054BB6
:103BE0005A6E196E52008A4294BF5A665966FFF7A0
:103BF000C9FF10BD4C0E002010B5FFF75BFAFFF7B0
:103C0000ABF94FF0000202800446FFF747FF0EE0D9
:103C10002388828804EB83035A802388C28804EBBC
:103C200083039A80238801332380FEF7F9FF10B1C4
:103C3000037B002BECD120888000023080B2FFF79C
:103C400085F9238813B10248FFF780F810BDC046FC
:103C50004C0E0020024B10B59B68984710BDC04623
:103C600004512000064B70B55B6805469847A9884B
:103C700004460120FFF7CCF9201E18BF012070BDBB
:103C800004512000054B10B51B689847044618B135
:103C90000120A188FFF7BCF9204610BD0451200087
:103CA00010B5FFF7B5F810BD10B590B0FFF754F997
:103CB0000446FFF77BF901AA0146204600F082FA8C
:103CC0000446002832D0FFF72BF978B39DF8141082
:103CD0001420FFF79DF99DF81910C1B1BDF81E2001
:103CE0004AF6CD339A4203D04FF6FF739A421DD164
:103CF00002290CBF02220822013A01A98B5CFF2B8A
:103D000002D1002AF8DC02E01B20FFF7A1F903A989
:103D10001A20FFF79DF99DF816101320FFF778F988
:103D20000E209DF81C10FFF773F901E04FF0FF34EF
:103D3000204610B010BDC04670B590B03C220E4673
:103D400001A8002101F098F83E4A13782BB90133FD
:103D50001370FEF769FF3C4B18701420FFF760F9F1
:103D60008DF814001320FFF75BF98DF81600FFF7AC
:103D700065F918B100238DF8173004E00B20FFF728
:103D80004FF98DF81700002301248DF818308DF8B5
:103D90001A40B6B10A20FFF743F928B10A20FFF70D
:103DA0003FF98DF81C000CE0274A137803B9147012
:103DB000254A0A2011784B1C13708DF81C10FFF750
:103DC00027F902244AF6CD338DF81B40ADF81E309A
:103DD000FFF734F940B14FF0FF338DF819408DF8FB
:103DE00004308DF8053008E01B20FFF71FF901466D
:103DF00001A8FFF77BF88DF8194001AD4AF6CD33E5
:103E0000124905F10800ADF82030FFF76FF8FFF711
:103E1000A3F80E90FFF7CAF80F90284600F008FBB1
:103E200004465EB1FFF7E0F810B94FF0FF3405E04B
:103E3000FFF79EF80146284600F08CFA204610B0A5
:103E400070BDC0462916002028160020301600201C
:103E5000012010B50146FFF76FFF10BD10B501201E
:103E60000021FFF769FF10BD084B10B55B6898474C
:103E7000041E08DBFFF79CF9054BDB689847002818
:103E800008BF4FF0FF34204610BDC046C45020008C
:103E9000D450200070B500241A20FFF7C7F80A4B51
:103EA00003EB84052946FFF717F840B10E20FFF712
:103EB000B7F8AB78834214BF0020012002E0013440
:103EC000102CE9D170BDC046B61400202DE9F04198
:103ED00000241A20FFF7AAF81649671C01EB840199
:103EE000FEF7FAFF10B9102F3C46F2D111497B1EA4
:103EF00001EB8306C7F102026FF0030303FB021517
:103F0000002406E030462946042200F069FF043E02
:103F1000043D0134BC42F5D10E20FFF781F8054C79
:103F2000A0701A20FFF782F801462046FEF7DEFF58
:103F3000BDE8F081B614002010B50478437843EA58
:103F400004238B400449885CC2F1080200EA232064
:103F50001041C0B210BDC04699532000072B2DE977
:103F6000F04780460F4616461D4607DC08461146B8
:103F70001A46FFF7E1FF88F8000026E04FEAE30960
:103F80000AB100240EE014463B5D08F80430013409
:103F90004C45F9DB15F0070217D038190021FFF75F
:103FA000CBFF10E0381908223146FFF7C5FF08F8AB
:103FB000040001344C45F5DB15F0070205D0381933
:103FC0003146FFF7B9FF08F80400BDE8F087C046A6
:103FD00001460020024603E08B185B780232C018CD
:103FE0008B5C002BF8D17047C1F11001C91A8A40CF
:103FF000037892B243EA1223037043781A43427063
:104000007047C046072B2DE9F04780460E461746FD
:104010001D4601DC12782EE04FEAE30909B10024C5
:1040200012E07B5C08F8013001314945F9DB15F0FD
:10403000070422D07A5CC4F108031A4108EB01009E
:10404000D2B20021234616E008EB04003A5D0823B3
:1040500031460134FFF7C8FF4C45F5DB15F0070585
:104060000BD03A5D06F108035B1B1A4108EB040014
:104070000021D2B22B46FFF7B7FFBDE8F087C0465C
:104080002DE9F347027B044612F0070318BF012312
:1040900003EBD205A81CFEF7A7FF00B932E0FEF73C
:1040A00067FFA3880370A3881B0A4370FEF760FFB5
:1040B00000F1020A504600212A4600F0DDFED4F845
:1040C00008900024264618E009EB060319285D78BD
:1040D0000AEBE40704F0070803D9FEF7A7FF02463E
:1040E00004E0FEF79DFF02AA22F8020D3846414681
:1040F0002B46FFF787FF6419023619F806000028DF
:10410000E2D10130BDE8FC872DE9F347FEF724FF3B
:1041100004460220FEF704FF002846D0637820788A
:1041200000EB032080B2FEF745FE814600283ED01A
:10413000FEF712FF99F80C30824613F0070018BF03
:10414000012000EBD300FEF7EBFE70B30026D9F898
:104150000880354624E008EB0503192A5F780AEB4E
:10416000E60106F007020BD90DF1060420463B4696
:10417000FFF7F4FE18F805002146FEF769FF0DE091
:1041800002A84FF0000320F8043D3B46FFF7E6FE8F
:1041900018F80500BDF80410FEF73AFFF6190235CD
:1041A00018F80520002AD6D101E04FF00009484652
:1041B000BDE8FC87022803D003280CBF082000209C
:1041C0007047C04602292DE9F34107468846154647
:1041D00040F386800378FC1C03F007028DF8002072
:1041E000C3F3C0028DF80120C3F300128DF8022042
:1041F000C3F34012C3F380138DF803208DF804300D
:104200004378C3F381028DF80520C3F301129B09A3
:104210008DF806208DF8073005F110026B4693E803
:10422000030082E80300BB789DF805602B76EEB1B1
:104230006278FB787C1D03EB0223022E6B8309D18D
:1042400028462949FEF752FE6378FC1D2B707B79C6
:104250006B7010E0032E0ED1394600220B7B013922
:10426000AB540132082AF9D1083404E028461E492B
:10427000FEF73CFE6E839DF8076026B39DF8043080
:104280002BB9627814F8023B03EB022300E06B8B3E
:10429000022EAB830AD105F108001349FEF726FE72
:1042A00063782B7214F8023B6B7212E0032E10D16C
:1042B00029460722A35C013A0B720131B2F1FF3F9C
:1042C000F8D1083405E005F108000749FEF70EFEB5
:1042D000AE83E01BC0EB08034045AB636C6300DDBD
:1042E0000020BDE8FC81C0461051200070B50522B9
:1042F00004460D460846002100F0BEFD637D13F024
:10430000030F01D002232B70E37D13F0030F01D0C4
:104310000223AB70637D13F0030F0CD0E37D13F029
:10432000030F08D0A28B638B9A4204D1012323751B
:10433000013BAB7001E000232375607D00F00300BA
:10434000FFF738FF6870E07D00F00300FFF732FFF1
:10435000E87070BD37B504460D460DF10301FFF757
:10436000C5FFA27C637C02F0010203F0010312018D
:1043700042EAC302237C03F007031A43E37C03F001
:10438000010342EA4312237D03F0010342EA831250
:104390002A70A37D627D03F0030302F003021B0178
:1043A00043EA8203E27D43EA82136B70237EAB70A3
:1043B0009DF80330022B02D04FF0030C06E0638B14
:1043C0004FF0050CEB70638B1B0A2B719DF804E01A
:1043D00000220EF1FF33E01803E043786B54531CC6
:1043E000DAB202EB0C0301387245D9B2F5D19DF86F
:1043F00005300A46022B08D1A38B4A1C6B54A38BB1
:10440000D2B21B0AAB540132D2B29DF806E00021B1
:104410000EF10703E01803E043782B554B1CD9B28B
:104420008B1801387145DCB2F6D120463EBDC0463E
:1044300007B50DF10301FFF759FF9DF804309DF812
:104440000300C0189DF805300330C0189DF80630F1
:10445000C0189DF80730C0180EBDC0464BB942B910
:10446000002908BF002802D04FF0FF31084600F0B5
:104470003BB882B0EC462DE9005000F005F8DDF8BD
:1044800004E002B00CBC70472DE9704316461C4690
:104490008046894600F03CFA00FB04F406FB014527
:1044A000069CA0FB0623EB18B8EB020869EB030996
:1044B000C4E90089BDE870832DE9704316461C46A7
:1044C0008046894600F012F800FB04F406FB014523
:1044D000069CA0FB0623EB18B8EB020869EB030966
:1044E000C4E90089BDE870837047C04600292DE902
:1044F000F04F144687B01D46C0F2F5800026002B11
:104500000196C0F2F980834626460F462846002DC4
:104510005CD18C426AD9B4F5803FC0F0DE81B4F141
:10452000807FC0F0E6811822082045F2A23336FAD7
:1045300002F1C0F220035A5C851A0AD0C5F12003AB
:1045400017FA05F22BFA03F3AE4043EA02070BFA1F
:1045500005FB4FEA1649384649464FEA064800F03F
:10456000C9FB49464FEA1848824608FB00F5384621
:1045700000F0FCFB4FEA1B4343EA0144A54208D983
:10458000A4190AF1FF3A04D2A54284BF0AF1FF3A06
:10459000A419641B4946204600F0ACFB494608FBC1
:1045A00000F70546204600F0E1FB4FEA0B431B0CE9
:1045B00043EA0142974205D9013D931902D29F4235
:1045C00088BF013D45EA0A40002103E08D4267D9DA
:1045D00000200146019E02460B4616B1524263EB93
:1045E00043031046194607B0BDE8F08F24B90120F7
:1045F000214600F07FFB0646B6F5803FC0F0838081
:10460000B6F1807FC0F078811822082045F2A233ED
:1046100036FA02F1C0F220035A5CB0EB020A40F015
:1046200085804FEA0648BC1B4FF0010A370C4FEA61
:1046300018482046394600F05DFB394608FB00F576
:104640008146204600F092FB4FEA1B4343EA0144B7
:10465000A54208D9A41909F1FF3904D2A54284BFA3
:1046600009F1FF39A419641B3946204600F042FBCA
:10467000394608FB00F80546204600F077FB4FEA74
:104680000B431B0C43EA0142904505D9013D9319A8
:1046900002D2984588BF013D45EA0940514699E755
:1046A000B5F5803FC0F09080B5F1807FC0F01E81ED
:1046B0001822082445F2A23330FA02F1C0F2200396
:1046C0005A5CB4EB020A40F092805E458CBF002336
:1046D0000123B84238BF43F00103002B3FF478AF09
:1046E0000120514676E7404261EB4101002B4FF03B
:1046F000FF360196BFF607AF019CE4430194544294
:1047000063EB4305FFE6B6F5807F45F2A23334BF85
:104710000022082234BF20201820C0F2200336FADD
:1047200002F15A5CB0EB020A3FF47BAF06FA0AF6DC
:10473000CAF1200337FA03F407FA0AF2370C2046CD
:1047400039462BFA03F31343039300F0D3FA4FEAED
:10475000064839464FEA1848029008FB00F5204603
:1047600000F004FB039A130C43EA0144A54209D963
:10477000029B013BA419029304D2A54202D9A419B9
:10478000591E0291641B3946204600F0B3FA39469F
:1047900008FB00F90546204600F0E8FA039A1304E6
:1047A0001B0C43EA0140814506D9013D801903D223
:1047B000814501D9013D8019029B0BFA0AFBC9EB27
:1047C000000445EA034A34E7B5F5807F45F2A23399
:1047D00034BF0022082234BF20241824C0F2200352
:1047E00030FA02F15A5CB4EB020A3FF46EAFCAF140
:1047F000200200FA0AF136FA02F337FA02F443EA29
:10480000010807FA0AF320462BFA02F24FEA18478A
:104810001A43394606FA0AF60592049600F06AFA37
:104820004FEA08463946360C814606FB00F520461D
:1048300000F09CFA059C230C43EA0144A54204D9EC
:1048400014EB080409F1FF395CD3641B3946204698
:1048500000F050FA394606FB00F60546204600F007
:1048600085FA059A13041B0C43EA0140864207D9D6
:10487000013D10EB080003D2864201D9013D4044BE
:10488000841B45EA0946049D3204300C2B04120CAB
:10489000290C1B0C01FB00F503FB02F703FB00F3E3
:1048A00001FB023202EB1740834288BF05F58035D9
:1048B00005EB10439C420DD3BBB214BF0021012174
:1048C0000BFA0AF203EB00439A422CBF002201F0DC
:1048D0000102A2B1701E00217CE6B4F5807F34BFD6
:1048E0000022082234BF202018201EE61022144681
:1048F000E0E61022104618E61022104686E6304602
:10490000114667E6A54284BF09F1FF3944449CE79C
:104910002DE9F04F0E461C4685B0114615468346DC
:104920003746002C5ED1B2427ED9B2F5803FC0F04E
:10493000C681B2F1807FC0F0D1811822082045F2F3
:10494000A23335FA02F1C0F220035A5CB0EB020E3A
:104950000BD0CEF1200306FA0EF22BFA03F305FA80
:104960000EF543EA02070BFA0EFB4FEA15493846EB
:1049700049464FEA054800F0BDF949464FEA184854
:10498000824608FB00F6384600F0F0F94FEA1B4378
:1049900043EA0144A64208D964190AF1FF3A04D255
:1049A000A64284BF0AF1FF3A6419A41B4946204677
:1049B00000F0A0F9494608FB00F70646204600F043
:1049C000D5F94FEA0B431B0C43EA0142974205D944
:1049D000013E531902D29F4288BF013E46EA0A4473
:1049E00000227CE0B44278D8B4F5803F7CD3B4F1A7
:1049F000807FC0F06D811822082045F2A23334FA7E
:104A000002F1C0F220035A5CB0EB020A7ED15D4590
:104A10008CBF00230123B44238BF43F00103002BB5
:104A20005BD0012452465AE01AB9012000F062F925
:104A30000546B5F5803FC0F0E180B5F1807FC0F05C
:104A40004A811822082045F2A23335FA02F1C0F259
:104A500020035A5CB0EB020A40F0E3804FEA0548BD
:104A6000741B2F0C4FF0010A4FEA184820463946B4
:104A700000F040F9394608FB00F68146204600F078
:104A800075F94FEA1B4343EA0144A64208D9641969
:104A900009F1FF3904D2A64284BF09F1FF39641934
:104AA000A41B3946204600F025F9394608FB00F8DA
:104AB0000646204600F05AF94FEA0B431B0C43EA26
:104AC0000142904505D9013E531902D2984588BF4D
:104AD000013E46EA0944524601E0002422462046AF
:104AE000114605B0BDE8F08FB4F5807F45F2A233E2
:104AF00034BF0022082234BF20201820C0F2200337
:104B000034FA02F15A5CB0EB020A80D0CAF12002FA
:104B100004FA0AF135FA02F336FA02F443EA01081C
:104B2000204606FA0AF32BFA02F24FEA18471A4314
:104B30003946039205FA0AF5029500F0DBF84FEAD0
:104B400008463946360C814606FB00F5204600F043
:104B50000DF9039A130C43EA0144A54205D914EB5D
:104B6000080409F1FF39C0F0BC80641B39462046B7
:104B700000F0C0F8394606FB00F60546204600F076
:104B8000F5F8039A13041B0C43EA0140864207D947
:104B9000013D10EB080003D2864201D9013D40449B
:104BA000841B45EA0946029D3204300C2B04120C8A
:104BB000290C1B0C01FB00F503FB02F703FB00F3C0
:104BC00001FB023202EB1740834288BF05F58035B6
:104BD00005EB10439C420ED3BBB214BF0021012150
:104BE0000BFA0AF203EB00439A422CBF002001F0BB
:104BF000010000287BD0741E002270E7B5F5807F8D
:104C000045F2A23334BF0022082234BF20201820EE
:104C1000C0F2200335FA02F15A5CB0EB020A3FF40D
:104C20001DAF05FA0AF5CAF1200336FA03F406FAB5
:104C30000AF22F0C204639462BFA03F31343019353
:104C400000F058F84FEA054839464FEA18480090F6
:104C500008FB00F6204600F089F8019A130C43EA9D
:104C60000144A64209D9009B013B6419009304D278
:104C7000A64202D96419591E0091A41B3946204648
:104C800000F038F8394608FB00F90646204600F0E7
:104C90006DF8019A13041B0C43EA0140814506D9C3
:104CA000013E401903D2814501D9013E4019009BC4
:104CB0000BFA0AFBC9EB000446EA034AD6E6B2F552
:104CC000807F34BF0022082234BF2020182036E61F
:104CD0001022104691E610221046B4E6102210462B
:104CE0002DE6A54284BF09F1FF3944443DE734462F
:104CF0000246F4E6002934D00123002210B4884291
:104D00002CD301242407A14204D2814202D20901FA
:104D10001B01F8E7E400A14204D2814202D249001B
:104D20005B00F8E7884201D3401A1A434C08A042BE
:104D300002D3001B5C0822438C08A04202D3001B54
:104D40009C082243CC08A04202D3001BDC0822436B
:104D5000002803D01B0901D00909E3E7101C10BC8F
:104D6000704708B14FF0FF30FFF7BEBB0029F8D005
:104D700003B5FFF7C1FF0EBC4243891A1847C0466E
:104D8000032A70B4164605460C460FD941EA0003C3
:104D900013F0030F0BD102680B689A4204D1043E52
:104DA00004300431032EF6D805460C46A6B12B7804
:104DB000207883420ED1711E4FF0000C61B105EBDB
:104DC0000C0304EB0C0201390CF1010C5B785078F8
:104DD0008342F3D0181A00E0002070BC7047C04630
:104DE00070B414460F2C06460D4604D945EA060356
:104DF00013F0030F0DD04AB14FF0000C11F80C3036
:104E000000F80C300CF1010C9445F7D1304670BC21
:104E10007047A4460B68ACF1100C03604A6842600E
:104E20008B688360CA681031C2601030BCF10F0F0C
:104E3000F0D8A4F1100303F00F0223F00F03103396
:104E4000EC18F118032A13D94FF0000C54F80C3069
:104E500041F80C300CF1040CCCEB0203032BF5D819
:104E6000131F03F0030223F003030433E418C918EB
:104E700008462146BFE7C046032A844630B40446AC
:104E8000CDB231D910F0030F2FD145EA05230F2AF7
:104E900088BF944643EA034188BF234612D9ACF148
:104EA000100C196059609960D9601033BCF10F0F74
:104EB000F5D8103A22F00F0302F00F021033E01879
:104EC000032A10D94FF0000C40F80C100CF1040C20
:104ED000CCEB0203032BF7D8131F03F0030223F0DC
:104EE00003030433C018844632B1E9B200230CF83E
:104EF000031001339A42FAD1204630BC7047C046B5
:104F00004000002000000000E90220000000000036
:104F1000DF52200000000000190A200000000000FD
:104F2000DF5220000000000089092000000000007E
:104F3000DF52200000000000E9092000000000000E
:104F4000DF52200000000000B9092000000000002E
:104F5000DF5220000000000059092000000000007E
:104F6000E6522000150B2000BD0A2000B90A2000DF
:104F700001000000010000000100000000C000402E
:104F800000410D4000000000080000002C0000005F
:104F900000000001FFFFFFFF05000000020000000D
:104FA000020000000200000000D0004008410D4057
:104FB00002000000080000002C000000FFFFFFFFBF
:104FC00001000303060000005D182000E517200023
:104FD000391720004D182000151620003513200029
:104FE00089132000A11320006512200091122000D7
:104FF000B1132000DD142000C1152000ED152000A4
:1050000007000000FF00000005000000ED000000A8
:1050100003000000D500000001000000C5000000F2
:1050200000000000B6000000FFFFFFFFB00000001E
:10503000FDFFFFFFA1000000FBFFFFFF910000004C
:10504000F9FFFFFF88000000F7FFFFFF720000007C
:10505000F5FFFFFF62000000F3FFFFFF58000000B4
:10506000F1FFFFFF42000000E8FFFFFF000000002B
:10507000912D2000412D20007D532000512E200035
:10508000212E2000D00B002082532000C5362000A6
:1050900005342000A1332000B1332000C1332000AB
:1050A000D133200087532000213720009938200079
:1050B0007538200029372000F936200009372000F4
:1050C0001D372000A1382000E538200011392000CC
:1050D000B13820008F532000713920009139200011
:1050E000793920007D3920008D392000313B2000A6
:1050F000F53A20005D3E2000513E2000693E200030
:10510000A93C20000941200081402000D13F20001F
:105110000000436F756E746572203D203078253035
:1051200038782C206E6F64655F4944203D25640A01
:105130000D005468697320697320656E642064658E
:10514000766963652077697468206E6F64655F496E
:10515000443D256420007472616E736D69747469D6
:105160006E672076616C7565206F662074686520B7
:10517000706F73697469766520706F7765722073DC
:105180007570706C7920746F206974732070696E0B
:10519000732C00202756646427203D272564272090
:1051A000766F6C747320746F2074686520436F6F22
:1051B0007264696E61746F722E0A0D007472616E92
:1051C000736D697474696E672072617720616D62B6
:1051D00069656E74206C696768742073656E736F9F
:1051E000722076616C7565203D27256427206C75DB
:1051F0007820746F2074686520436F6F7264696EE5
:1052000061746F722E0A0D007472616E736D697431
:1052100074696E672054656D70657261747572652E
:105220002076616C7565203D2725642720646567BD
:105230007265652063656C7369757320746F207483
:10524000686520436F6F7264696E61746F722E0AB5
:105250000D006363323533382064656D6F207072E2
:105260006F6365737300436F6E74696B692D322EC3
:10527000362D323039392D673764303634393400C1
:10528000544920536D61727452463036202B20638E
:105290006332353338454D00204E65743A20002086
:1052A0004D41433A2000205244433A200052696D58
:1052B0006520636F6E6669677572656420776974CF
:1052C0006820616464726573732000253032783A17
:1052D00000253032780A0053656E736F7273004296
:1052E0007574746F6E004144430063633235333824
:1052F00020524620647269766572002020202020AA
:105300002020202020202020202020303132333443
:10531000353637383961626364656600303132335F
:10532000343536373839414243444546002500304C
:1053300078003058002D002B00286E756C6C290009
:10534000303030303030303030303030303030305D
:105350004374696D65722070726F63657373004585
:1053600076656E742074696D65720053657269614B
:105370006C20647269766572001A10000052696DC3
:10538000650043534D41006E756C6C726463006E32
:10539000756C6C7365630000000080C0E0F0F8FC81
:1053A000FEFF0001020203030303040404040404D7
:1053B000040405050505050505050505050505059F
:1053C000050506060606060606060606060606067F
:1053D000060606060606060606060606060606066D
:1053E000060607070707070707070707070707074F
:1053F000070707070707070707070707070707073D
:10540000070707070707070707070707070707072C
:10541000070707070707070707070707070707071C
:1054200007070808080808080808080808080808FE
:1054300008080808080808080808080808080808EC
:1054400008080808080808080808080808080808DC
:1054500008080808080808080808080808080808CC
:1054600008080808080808080808080808080808BC
:1054700008080808080808080808080808080808AC
:10548000080808080808080808080808080808089C
:10549000080808080808080808080808080808088C
:0254A0000808FA
:1054A2000000000052522000F5022000000000001F
:1054B20000000000D7522000190820000000000060
:1054C200104F2000304F2000404F2000204F20007E
:1054D200504F2000604F200000000000000000003C
:1054E200EA5220003519200000000000091D2000AA
:1054F2000000000000000000505320009D24200006
:1055020000000000000000005F532000552620002C
:1055120000000000000000006B532000892A2000D8
:1055220000000000040008000D160020800C00207E
:105532003C0002000B160020A00C0020BE00080058
:1055420003160020C40E00200C0008001D160020C7
:10555200180D00203400020025160020DC0D00206A
:0D5562000C000800151600207C0D0020191B
:105570007CEFFF7F0100000098F3FF7F0100000037
:020000040027D3
:10FFD400FFFFFFF30000000000002000FFFFFFFF11
:10FFE400FFFFFFFFFFFFFFFFFFFFFFFFFFFFFFFF1D
:0CFFF400FFFFFFFFFFFFFFFFFFFFFFFF0D
:0400000500200000D7
:00000001FF
